{
  "address": "0x2f265A17E3E2555A798da9f07EEB8028e2116Db5",
  "abi": [
    {
      "inputs": [
        {
          "internalType": "address",
          "name": "vrfCoordinatorV2",
          "type": "address"
        },
        {
          "internalType": "uint256",
          "name": "entranceFee",
          "type": "uint256"
        },
        {
          "internalType": "bytes32",
          "name": "gasLane",
          "type": "bytes32"
        },
        {
          "internalType": "uint64",
          "name": "subscriptionId",
          "type": "uint64"
        },
        {
          "internalType": "uint32",
          "name": "callbackGasLimit",
          "type": "uint32"
        },
        {
          "internalType": "uint256",
          "name": "interval",
          "type": "uint256"
        }
      ],
      "stateMutability": "nonpayable",
      "type": "constructor"
    },
    {
      "inputs": [
        {
          "internalType": "address",
          "name": "have",
          "type": "address"
        },
        {
          "internalType": "address",
          "name": "want",
          "type": "address"
        }
      ],
      "name": "OnlyCoordinatorCanFulfill",
      "type": "error"
    },
    {
      "inputs": [],
      "name": "Raffle__NotEnoughETHEntered",
      "type": "error"
    },
    {
      "inputs": [],
      "name": "Raffle__NotOpen",
      "type": "error"
    },
    {
      "inputs": [],
      "name": "Raffle__TransferFailed",
      "type": "error"
    },
    {
      "inputs": [
        {
          "internalType": "uint256",
          "name": "currentBalance",
          "type": "uint256"
        },
        {
          "internalType": "uint256",
          "name": "numPlayers",
          "type": "uint256"
        },
        {
          "internalType": "uint256",
          "name": "raffleState",
          "type": "uint256"
        }
      ],
      "name": "Raffle__UpkeepNotNeeded",
      "type": "error"
    },
    {
      "anonymous": false,
      "inputs": [
        {
          "indexed": true,
          "internalType": "address",
          "name": "player",
          "type": "address"
        }
      ],
      "name": "RaffleEnter",
      "type": "event"
    },
    {
      "anonymous": false,
      "inputs": [
        {
          "indexed": true,
          "internalType": "uint256",
          "name": "requestId",
          "type": "uint256"
        }
      ],
      "name": "RequestedRaffleWinner",
      "type": "event"
    },
    {
      "anonymous": false,
      "inputs": [
        {
          "indexed": true,
          "internalType": "address",
          "name": "winner",
          "type": "address"
        }
      ],
      "name": "WinnerPicked",
      "type": "event"
    },
    {
      "inputs": [
        {
          "internalType": "bytes",
          "name": "",
          "type": "bytes"
        }
      ],
      "name": "checkUpkeep",
      "outputs": [
        {
          "internalType": "bool",
          "name": "upkeepNeeded",
          "type": "bool"
        },
        {
          "internalType": "bytes",
          "name": "",
          "type": "bytes"
        }
      ],
      "stateMutability": "nonpayable",
      "type": "function"
    },
    {
      "inputs": [],
      "name": "enterRaffle",
      "outputs": [],
      "stateMutability": "payable",
      "type": "function"
    },
    {
      "inputs": [],
      "name": "getEntranceFee",
      "outputs": [
        {
          "internalType": "uint256",
          "name": "",
          "type": "uint256"
        }
      ],
      "stateMutability": "view",
      "type": "function"
    },
    {
      "inputs": [],
      "name": "getInterval",
      "outputs": [
        {
          "internalType": "uint256",
          "name": "",
          "type": "uint256"
        }
      ],
      "stateMutability": "view",
      "type": "function"
    },
    {
      "inputs": [],
      "name": "getLatestTimeStamp",
      "outputs": [
        {
          "internalType": "uint256",
          "name": "",
          "type": "uint256"
        }
      ],
      "stateMutability": "view",
      "type": "function"
    },
    {
      "inputs": [],
      "name": "getNumWords",
      "outputs": [
        {
          "internalType": "uint256",
          "name": "",
          "type": "uint256"
        }
      ],
      "stateMutability": "pure",
      "type": "function"
    },
    {
      "inputs": [],
      "name": "getNumberOfPlayers",
      "outputs": [
        {
          "internalType": "uint256",
          "name": "",
          "type": "uint256"
        }
      ],
      "stateMutability": "view",
      "type": "function"
    },
    {
      "inputs": [
        {
          "internalType": "uint256",
          "name": "index",
          "type": "uint256"
        }
      ],
      "name": "getPlayer",
      "outputs": [
        {
          "internalType": "address",
          "name": "",
          "type": "address"
        }
      ],
      "stateMutability": "view",
      "type": "function"
    },
    {
      "inputs": [],
      "name": "getRaffleState",
      "outputs": [
        {
          "internalType": "enum Raffle.RaffleState",
          "name": "",
          "type": "uint8"
        }
      ],
      "stateMutability": "view",
      "type": "function"
    },
    {
      "inputs": [],
      "name": "getRecentWinner",
      "outputs": [
        {
          "internalType": "address",
          "name": "",
          "type": "address"
        }
      ],
      "stateMutability": "view",
      "type": "function"
    },
    {
      "inputs": [],
      "name": "getRequestconfirmation",
      "outputs": [
        {
          "internalType": "uint256",
          "name": "",
          "type": "uint256"
        }
      ],
      "stateMutability": "pure",
      "type": "function"
    },
    {
      "inputs": [
        {
          "internalType": "bytes",
          "name": "",
          "type": "bytes"
        }
      ],
      "name": "performUpkeep",
      "outputs": [],
      "stateMutability": "nonpayable",
      "type": "function"
    },
    {
      "inputs": [
        {
          "internalType": "uint256",
          "name": "requestId",
          "type": "uint256"
        },
        {
          "internalType": "uint256[]",
          "name": "randomWords",
          "type": "uint256[]"
        }
      ],
      "name": "rawFulfillRandomWords",
      "outputs": [],
      "stateMutability": "nonpayable",
      "type": "function"
    }
  ],
  "transactionHash": "0xaf0a94a5902c51cc55bbb4bb16eb1be2594976955654acdada4781e477eee4c9",
  "args": [
    "0x6168499c0cFfCaCD319c818142124B7A15E857ab",
    "100000000000000000",
    "0xd89b2bf150e3b9e13446986e571fb9cab24b13cea0a43ea20a6049a85cc807cc",
    "7798",
    "500000",
    "30"
  ],
  "numDeployments": 3,
  "solcInputHash": "31ee39defe5ba87f7aeca3a73b834cab",
  "bytecode": "0x6101606040523480156200001257600080fd5b5060405162001b2338038062001b23833981810160405281019062000038919062000294565b858073ffffffffffffffffffffffffffffffffffffffff1660808173ffffffffffffffffffffffffffffffffffffffff1681525050508460a081815250508573ffffffffffffffffffffffffffffffffffffffff1660c08173ffffffffffffffffffffffffffffffffffffffff16815250508360e081815250508267ffffffffffffffff166101008167ffffffffffffffff16815250508163ffffffff166101208163ffffffff16815250506000600160146101000a81548160ff021916908360018111156200010d576200010c62000330565b5b0217905550426002819055508061014081815250505050505050506200035f565b600080fd5b600073ffffffffffffffffffffffffffffffffffffffff82169050919050565b6000620001608262000133565b9050919050565b620001728162000153565b81146200017e57600080fd5b50565b600081519050620001928162000167565b92915050565b6000819050919050565b620001ad8162000198565b8114620001b957600080fd5b50565b600081519050620001cd81620001a2565b92915050565b6000819050919050565b620001e881620001d3565b8114620001f457600080fd5b50565b6000815190506200020881620001dd565b92915050565b600067ffffffffffffffff82169050919050565b6200022d816200020e565b81146200023957600080fd5b50565b6000815190506200024d8162000222565b92915050565b600063ffffffff82169050919050565b6200026e8162000253565b81146200027a57600080fd5b50565b6000815190506200028e8162000263565b92915050565b60008060008060008060c08789031215620002b457620002b36200012e565b5b6000620002c489828a0162000181565b9650506020620002d789828a01620001bc565b9550506040620002ea89828a01620001f7565b9450506060620002fd89828a016200023c565b93505060806200031089828a016200027d565b92505060a06200032389828a01620001bc565b9150509295509295509295565b7f4e487b7100000000000000000000000000000000000000000000000000000000600052602160045260246000fd5b60805160a05160c05160e05161010051610120516101405161174d620003d66000396000818161080c0152610976015260006106d7015260006106b401526000610693015260006106570152600081816102fa015281816104030152610429015260008181610337015261038b015261174d6000f3fe6080604052600436106100c25760003560e01c8063473f1ddc1161007f57806391ad27b41161005957806391ad27b41461023857806399e8362b14610263578063e55ae4e81461028e578063fd6673f5146102cb576100c2565b8063473f1ddc146101a457806353a2c19a146101cf5780636e04ff0d146101fa576100c2565b806309bc33a7146100c7578063115cbaf5146100f25780631fe543e31461011d5780632cfcc53914610146578063320229eb146101505780634585e33b1461017b575b600080fd5b3480156100d357600080fd5b506100dc6102f6565b6040516100e99190610e49565b60405180910390f35b3480156100fe57600080fd5b5061010761031e565b6040516101149190610edb565b60405180910390f35b34801561012957600080fd5b50610144600480360381019061013f919061108f565b610335565b005b61014e6103f5565b005b34801561015c57600080fd5b50610165610596565b6040516101729190610e49565b60405180910390f35b34801561018757600080fd5b506101a2600480360381019061019d9190611146565b6105a0565b005b3480156101b057600080fd5b506101b9610790565b6040516101c691906111d4565b60405180910390f35b3480156101db57600080fd5b506101e46107ba565b6040516101f19190610e49565b60405180910390f35b34801561020657600080fd5b50610221600480360381019061021c91906112a4565b6107c9565b60405161022f929190611390565b60405180910390f35b34801561024457600080fd5b5061024d610972565b60405161025a9190610e49565b60405180910390f35b34801561026f57600080fd5b5061027861099a565b6040516102859190610e49565b60405180910390f35b34801561029a57600080fd5b506102b560048036038101906102b091906113c0565b6109a7565b6040516102c291906111d4565b60405180910390f35b3480156102d757600080fd5b506102e06109ee565b6040516102ed9190610e49565b60405180910390f35b60007f0000000000000000000000000000000000000000000000000000000000000000905090565b6000600160149054906101000a900460ff16905090565b7f000000000000000000000000000000000000000000000000000000000000000073ffffffffffffffffffffffffffffffffffffffff163373ffffffffffffffffffffffffffffffffffffffff16146103e757337f00000000000000000000000000000000000000000000000000000000000000006040517f1cf993f40000000000000000000000000000000000000000000000000000000081526004016103de9291906113ed565b60405180910390fd5b6103f182826109fa565b5050565b6103fe34610c2b565b6104277f0000000000000000000000000000000000000000000000000000000000000000610c2b565b7f0000000000000000000000000000000000000000000000000000000000000000341015610481576040517fbd4e069500000000000000000000000000000000000000000000000000000000815260040160405180910390fd5b6000600181111561049557610494610e64565b5b600160149054906101000a900460ff1660018111156104b7576104b6610e64565b5b146104ee576040517f1425571c00000000000000000000000000000000000000000000000000000000815260040160405180910390fd5b6000339080600181540180825580915050600190039060005260206000200160009091909190916101000a81548173ffffffffffffffffffffffffffffffffffffffff021916908373ffffffffffffffffffffffffffffffffffffffff1602179055503373ffffffffffffffffffffffffffffffffffffffff167f0805e1d667bddb8a95f0f09880cf94f403fb596ce79928d9f29b74203ba284d460405160405180910390a2565b6000600254905090565b60006105ba604051806020016040528060008152506107c9565b509050806106295747600080549050600160149054906101000a900460ff1660018111156105eb576105ea610e64565b5b6040517f584327aa00000000000000000000000000000000000000000000000000000000815260040161062093929190611416565b60405180910390fd5b60018060146101000a81548160ff0219169083600181111561064e5761064d610e64565b5b021790555060007f000000000000000000000000000000000000000000000000000000000000000073ffffffffffffffffffffffffffffffffffffffff16635d3b1d307f00000000000000000000000000000000000000000000000000000000000000007f000000000000000000000000000000000000000000000000000000000000000060037f000000000000000000000000000000000000000000000000000000000000000060016040518663ffffffff1660e01b81526004016107189594939291906114c5565b6020604051808303816000875af1158015610737573d6000803e3d6000fd5b505050506040513d601f19601f8201168201806040525081019061075b919061152d565b9050807fcd6e45c8998311cab7e9d4385596cac867e20a0587194b954fa3a731c93ce78b60405160405180910390a250505050565b6000600160009054906101000a900473ffffffffffffffffffffffffffffffffffffffff16905090565b6000600163ffffffff16905090565b600060606000600160149054906101000a900460ff1660018111156107f1576107f0610e64565b5b6000600181111561080557610804610e64565b5b14905060007f0000000000000000000000000000000000000000000000000000000000000000600254426108399190611589565b1190506000806000805490501190506000804711905061088e6040518060400160405280600b81526020017f4973204f70656e3a20257300000000000000000000000000000000000000000081525085610cc4565b6108cd6040518060400160405280600f81526020017f54696d65205061737365643a202573000000000000000000000000000000000081525084610cc4565b61090c6040518060400160405280600f81526020017f48617320506c61796572733a202573000000000000000000000000000000000081525083610cc4565b61094b6040518060400160405280600f81526020017f4861732042616c616e63653a202573000000000000000000000000000000000081525082610cc4565b8380156109555750825b801561095e5750815b80156109675750805b955050505050915091565b60007f0000000000000000000000000000000000000000000000000000000000000000905090565b6000600361ffff16905090565b60008082815481106109bc576109bb6115bd565b5b9060005260206000200160009054906101000a900473ffffffffffffffffffffffffffffffffffffffff169050919050565b60008080549050905090565b6000808054905082600081518110610a1557610a146115bd565b5b6020026020010151610a27919061161b565b90506000808281548110610a3e57610a3d6115bd565b5b9060005260206000200160009054906101000a900473ffffffffffffffffffffffffffffffffffffffff16905080600160006101000a81548173ffffffffffffffffffffffffffffffffffffffff021916908373ffffffffffffffffffffffffffffffffffffffff1602179055506000600160146101000a81548160ff02191690836001811115610ad257610ad1610e64565b5b0217905550600067ffffffffffffffff811115610af257610af1610f4c565b5b604051908082528060200260200182016040528015610b205781602001602082028036833780820191505090505b5060009080519060200190610b36929190610d89565b504260028190555060008173ffffffffffffffffffffffffffffffffffffffff1647604051610b649061167d565b60006040518083038185875af1925050503d8060008114610ba1576040519150601f19603f3d011682016040523d82523d6000602084013e610ba6565b606091505b5050905080610be1576040517fa1d04b3900000000000000000000000000000000000000000000000000000000815260040160405180910390fd5b8173ffffffffffffffffffffffffffffffffffffffff167f5b690ec4a06fe979403046eaeea5b3ce38524683c3001f662c8b5a829632f7df60405160405180910390a25050505050565b610cc181604051602401610c3f9190610e49565b6040516020818303038152906040527ff5b1bba9000000000000000000000000000000000000000000000000000000007bffffffffffffffffffffffffffffffffffffffffffffffffffffffff19166020820180517bffffffffffffffffffffffffffffffffffffffffffffffffffffffff8381831617835250505050610d60565b50565b610d5c8282604051602401610cda9291906116e7565b6040516020818303038152906040527fc3b55635000000000000000000000000000000000000000000000000000000007bffffffffffffffffffffffffffffffffffffffffffffffffffffffff19166020820180517bffffffffffffffffffffffffffffffffffffffffffffffffffffffff8381831617835250505050610d60565b5050565b60008151905060006a636f6e736f6c652e6c6f679050602083016000808483855afa5050505050565b828054828255906000526020600020908101928215610e02579160200282015b82811115610e015782518260006101000a81548173ffffffffffffffffffffffffffffffffffffffff021916908373ffffffffffffffffffffffffffffffffffffffff16021790555091602001919060010190610da9565b5b509050610e0f9190610e13565b5090565b5b80821115610e2c576000816000905550600101610e14565b5090565b6000819050919050565b610e4381610e30565b82525050565b6000602082019050610e5e6000830184610e3a565b92915050565b7f4e487b7100000000000000000000000000000000000000000000000000000000600052602160045260246000fd5b60028110610ea457610ea3610e64565b5b50565b6000819050610eb582610e93565b919050565b6000610ec582610ea7565b9050919050565b610ed581610eba565b82525050565b6000602082019050610ef06000830184610ecc565b92915050565b6000604051905090565b600080fd5b600080fd5b610f1381610e30565b8114610f1e57600080fd5b50565b600081359050610f3081610f0a565b92915050565b600080fd5b6000601f19601f8301169050919050565b7f4e487b7100000000000000000000000000000000000000000000000000000000600052604160045260246000fd5b610f8482610f3b565b810181811067ffffffffffffffff82111715610fa357610fa2610f4c565b5b80604052505050565b6000610fb6610ef6565b9050610fc28282610f7b565b919050565b600067ffffffffffffffff821115610fe257610fe1610f4c565b5b602082029050602081019050919050565b600080fd5b600061100b61100684610fc7565b610fac565b9050808382526020820190506020840283018581111561102e5761102d610ff3565b5b835b8181101561105757806110438882610f21565b845260208401935050602081019050611030565b5050509392505050565b600082601f83011261107657611075610f36565b5b8135611086848260208601610ff8565b91505092915050565b600080604083850312156110a6576110a5610f00565b5b60006110b485828601610f21565b925050602083013567ffffffffffffffff8111156110d5576110d4610f05565b5b6110e185828601611061565b9150509250929050565b600080fd5b60008083601f84011261110657611105610f36565b5b8235905067ffffffffffffffff811115611123576111226110eb565b5b60208301915083600182028301111561113f5761113e610ff3565b5b9250929050565b6000806020838503121561115d5761115c610f00565b5b600083013567ffffffffffffffff81111561117b5761117a610f05565b5b611187858286016110f0565b92509250509250929050565b600073ffffffffffffffffffffffffffffffffffffffff82169050919050565b60006111be82611193565b9050919050565b6111ce816111b3565b82525050565b60006020820190506111e960008301846111c5565b92915050565b600080fd5b600067ffffffffffffffff82111561120f5761120e610f4c565b5b61121882610f3b565b9050602081019050919050565b82818337600083830152505050565b6000611247611242846111f4565b610fac565b905082815260208101848484011115611263576112626111ef565b5b61126e848285611225565b509392505050565b600082601f83011261128b5761128a610f36565b5b813561129b848260208601611234565b91505092915050565b6000602082840312156112ba576112b9610f00565b5b600082013567ffffffffffffffff8111156112d8576112d7610f05565b5b6112e484828501611276565b91505092915050565b60008115159050919050565b611302816112ed565b82525050565b600081519050919050565b600082825260208201905092915050565b60005b83811015611342578082015181840152602081019050611327565b83811115611351576000848401525b50505050565b600061136282611308565b61136c8185611313565b935061137c818560208601611324565b61138581610f3b565b840191505092915050565b60006040820190506113a560008301856112f9565b81810360208301526113b78184611357565b90509392505050565b6000602082840312156113d6576113d5610f00565b5b60006113e484828501610f21565b91505092915050565b600060408201905061140260008301856111c5565b61140f60208301846111c5565b9392505050565b600060608201905061142b6000830186610e3a565b6114386020830185610e3a565b6114456040830184610e3a565b949350505050565b6000819050919050565b6114608161144d565b82525050565b600067ffffffffffffffff82169050919050565b61148381611466565b82525050565b600061ffff82169050919050565b6114a081611489565b82525050565b600063ffffffff82169050919050565b6114bf816114a6565b82525050565b600060a0820190506114da6000830188611457565b6114e7602083018761147a565b6114f46040830186611497565b61150160608301856114b6565b61150e60808301846114b6565b9695505050505050565b60008151905061152781610f0a565b92915050565b60006020828403121561154357611542610f00565b5b600061155184828501611518565b91505092915050565b7f4e487b7100000000000000000000000000000000000000000000000000000000600052601160045260246000fd5b600061159482610e30565b915061159f83610e30565b9250828210156115b2576115b161155a565b5b828203905092915050565b7f4e487b7100000000000000000000000000000000000000000000000000000000600052603260045260246000fd5b7f4e487b7100000000000000000000000000000000000000000000000000000000600052601260045260246000fd5b600061162682610e30565b915061163183610e30565b925082611641576116406115ec565b5b828206905092915050565b600081905092915050565b50565b600061166760008361164c565b915061167282611657565b600082019050919050565b60006116888261165a565b9150819050919050565b600081519050919050565b600082825260208201905092915050565b60006116b982611692565b6116c3818561169d565b93506116d3818560208601611324565b6116dc81610f3b565b840191505092915050565b6000604082019050818103600083015261170181856116ae565b905061171060208301846112f9565b939250505056fea264697066735822122041ec4ac4e61d4aea18a6ec6703b1156fbfd54eb60e77c057463ebf5769c86a5364736f6c634300080f0033",
  "devdoc": {
    "author": "Leon",
    "details": "This implements Chainlink VRF v2 and Chainlink Keepers",
    "kind": "dev",
    "methods": {
      "checkUpkeep(bytes)": {
        "details": "This is the function that the Chainlink Keeper nodes call. They look for the upkeepNeeded to return true The foloowing should be true in order to return true: 1. Our time interval should have passed 2. The lottery should have at least 1 player and have some ETH 3. Our subscription is funded with LINK (LINK is used for every update triggered by upkeep) 4. The lottery should be in an 'open' state"
      }
    },
    "title": "A sample Raffle Contract",
    "version": 1
  },
  "userdoc": {
    "kind": "user",
    "methods": {},
    "notice": "This contract is for creating an untamperable decentralized smart contract",
    "version": 1
  },
  "storageLayout": {
    "storage": [
      {
        "astId": 196,
        "contract": "contracts/Raffle.sol:Raffle",
        "label": "s_players",
        "offset": 0,
        "slot": "0",
        "type": "t_array(t_address_payable)dyn_storage"
      },
      {
        "astId": 217,
        "contract": "contracts/Raffle.sol:Raffle",
        "label": "s_recentWinner",
        "offset": 0,
        "slot": "1",
        "type": "t_address"
      },
      {
        "astId": 220,
        "contract": "contracts/Raffle.sol:Raffle",
        "label": "s_raffleState",
        "offset": 20,
        "slot": "1",
        "type": "t_enum(RaffleState)193"
      },
      {
        "astId": 222,
        "contract": "contracts/Raffle.sol:Raffle",
        "label": "s_lastTimeStamp",
        "offset": 0,
        "slot": "2",
        "type": "t_uint256"
      }
    ],
    "types": {
      "t_address": {
        "encoding": "inplace",
        "label": "address",
        "numberOfBytes": "20"
      },
      "t_address_payable": {
        "encoding": "inplace",
        "label": "address payable",
        "numberOfBytes": "20"
      },
      "t_array(t_address_payable)dyn_storage": {
        "base": "t_address_payable",
        "encoding": "dynamic_array",
        "label": "address payable[]",
        "numberOfBytes": "32"
      },
      "t_enum(RaffleState)193": {
        "encoding": "inplace",
        "label": "enum Raffle.RaffleState",
        "numberOfBytes": "1"
      },
      "t_uint256": {
        "encoding": "inplace",
        "label": "uint256",
        "numberOfBytes": "32"
      }
    }
  }
}